:100000000C9434000C943E000C943E000C943E0082
:100010000C943E000C943E000C943E000C943E0068
:100020000C943E000C943E000C943E000C943E0058
:100030000C943E000C943E000C943E000C943E0048
:100040000C943E000C943E000C943E000C943E0038
:100050000C943E000C943E000C943E000C943E0028
:100060000C943E000C943E0011241FBECFEFD8E04C
:10007000DEBFCDBF0E945D000C946F000C940000A9
:1000800080E18093C4001092C50082E08093C0009C
:1000900088E18093C10086E08093C200089590912A
:1000A000C00095FFFCCF8093C60008958091C000EA
:1000B00087FFFCCF8091C60008950E9440000E94F7
:1000C00056009FEB980F9A3110F4805E05C09FE9AF
:1000D000980F9A3108F480520E944F00F0CFF894A4
:0200E000FFCF50
:00000001FF
