:100000000C9434000C9449000C9449000C94490061
:100010000C9449000C9449000C9449000C9449003C
:100020000C9449000C9449000C9449000C9449002C
:100030000C9449000C9449000C9449000C9449001C
:100040000C9449000C9449000C9449000C9449000C
:100050000C9449000C9449000C9449000C944900FC
:100060000C9449000C94490011241FBECFEFD8E036
:10007000DEBFCDBF13E0A0E0B1E0EAE6F2E002C0EF
:1000800005900D92AC35B107D9F70E94DF000C94B2
:1000900033010C94000080E18093C4001092C500ED
:1000A00082E08093C00088E18093C10086E0809365
:1000B000C20008959091C00095FFFCCF8093C600C8
:1000C00008958091C00087FFFCCF8091C6000895FD
:1000D0000F931F93CF93C62F8C01F80181918F014D
:1000E0000E945A00C150C9F7CF911F910F910895F6
:1000F000282FFC018E2F821B91919111FBCF089527
:10010000CF93DF93EC010E947800682FCE01DF913E
:10011000CF910C946800BF92CF92DF92EF92FF9242
:100120000F931F93CF93DF938C01B62EFC017C01BC
:100130008FEFE80EF11C1192EE15FF05E1F7E801D3
:100140000E9461008D30D9F08F3759F40C171D07CC
:10015000B8F71882219763E08EEF92E00E94680062
:10016000EFCFCE15DF0560F76E019FEFC91AD90AF0
:100170008883B1108AE20E945A00E601E1CFDF9144
:10018000CF911F910F91FF90EF90DF90CF90BF9094
:1001900008959C01FC014191CF01442341F09F014E
:1001A0006F5F7F4FFB0131975081451791F3D90164
:1001B0001197FB0131978C919081891B0895CF9302
:1001C000DF93CDB7DEB7CF5FD1090FB6F894DEBFAE
:1001D0000FBECDBF0E944B00259A82E093E00E94A3
:1001E00080008AE193E00E94800060E0CE010196E9
:1001F0000E948B00BE016F5F7F4F8FEF91E00E94E6
:10020000C90081112BC082E293E00E94800061E06E
:10021000CE0101960E948B00BE016F5F7F4F80E090
:1002200091E00E94C9008823B1F08CE293E00E9423
:1002300080008FEF91E00E94800090E285B18927D5
:1002400085B92FEF31EE84E0215030408040E1F756
:1002500000C00000F3CF87E393E002C08AE493E09C
:0A0260000E948000BACFF894FFCF8F
:10026A0073656372657400000000000000000000FE
:10027A000000000000000000000000000000000074
:10028A000000000000000000000000000000000064
:10029A000000000000000000000000000000000054
:1002AA000000000000000000000000000000000044
:1002BA000000000000000000000000000000000034
:1002CA000000000000000000000000000000000024
:1002DA000000000000000000000000000000000014
:1002EA000000000000000000000000000000000004
:1002FA0000000000000000000000000000000000F4
:10030A0000000000000000000000000000000000E3
:10031A0000000000000000000000000000000000D3
:10032A0000000000000000000000000000000000C3
:10033A0000000000000000000000000000000000B3
:10034A0000000000000000000000000000000000A3
:10035A000000000000000000000000000000007320
:10036A007065637472650000000000000000000000
:10037A000000000000000000000000000000000073
:10038A000000000000000000000000000000000063
:10039A000000000000000000000000000000000053
:1003AA000000000000000000000000000000000043
:1003BA000000000000000000000000000000000033
:1003CA000000000000000000000000000000000023
:1003DA000000000000000000000000000000000013
:1003EA000000000000000000000000000000000003
:1003FA0000000000000000000000000000000000F3
:10040A0000000000000000000000000000000000E2
:10041A0000000000000000000000000000000000D2
:10042A0000000000000000000000000000000000C2
:10043A0000000000000000000000000000000000B2
:10044A0000000000000000000000000000000000A2
:10045A00000000000000000000000000000008206A
:10046A0008000D0A48656C6C6F20706C65617365D5
:10047A00206C6F67696E3A0D0A0009557365723A06
:10048A0020000D0A09506173733A20000D0A57655E
:10049A006C636F6D6520000D0A57726F6E6720706E
:1004AA00617373776F72640D0A000D0A4E6F2075BF
:0C04BA0073657220666F756E640D0A0099
:00000001FF
