:100000000C9434000C9449000C9449000C94490061
:100010000C9449000C9449000C9449000C9449003C
:100020000C9449000C9449000C9449000C9449002C
:100030000C9449000C9449000C9449000C9449001C
:100040000C9449000C9449000C9449000C9449000C
:100050000C9449000C9449000C9449000C944900FC
:100060000C9449000C94490011241FBECFEFD8E036
:10007000DEBFCDBF11E0A0E0B1E0E4EEF0E002C0F1
:1000800005900D92A031B107D9F70E944B000C9456
:1000900070000C94000080E18093C4001092C500B1
:1000A00082E08093C00088E18093C10086E0809365
:1000B000C200E0E0F1E081919091C00095FFFCCF9B
:1000C0008093C60021E0EE30F207A9F78FEF93EDA1
:1000D00020E3815090402040E1F700C00000E9CFCC
:0400E000F894FFCFC2
:1000E40048656C6C6F20576F726C64210D0A0000B8
:00000001FF
