:100000000C9434000C9449000C9449000C94490061
:100010000C9449000C9449000C9449000C9449003C
:100020000C9449000C9449000C9449000C9449002C
:100030000C9449000C9449000C9449000C9449001C
:100040000C9449000C9449000C9449000C9449000C
:100050000C9449000C9449000C9449000C944900FC
:100060000C9449000C94490011241FBECFEFD8E036
:10007000DEBFCDBF11E0A0E0B1E0ECE3F1E002C0F3
:1000800005900D92A031B107D9F70E9478000C9429
:100090009C000C94000080E18093C4001092C50085
:1000A00082E08093C00088E18093C10086E0809365
:1000B000C20008959091C00095FFFCCF8093C600C8
:1000C00008958091C00087FFFCCF8091C6000895FD
:1000D0000F931F93CF93C62F8C01F80181918F014D
:1000E0000E945A00C150C9F7CF911F910F910895F6
:1000F000CF93DF93CDB7DEB72F970FB6F894DEBF5F
:100100000FBECDBF8FE0E0E0F1E0DE01119601907F
:100110000D928A95E1F70E944B006EE0CE010196A8
:100120000E9468002FEF83ED90E3215080409040C3
:0C013000E1F700C00000F1CFF894FFCF11
:10013C0048656C6C6F20576F726C64210D0A00005F
:00000001FF
