:100000000C9434000C9449000C9449000C94490061
:100010000C9449000C9449000C9449000C9449003C
:100020000C9449000C9449000C9449000C9449002C
:100030000C9449000C9449000C9449000C9449001C
:100040000C9449000C9449000C9449000C9449000C
:100050000C9449000C9449000C9449000C944900FC
:100060000C9449000C94490011241FBECFEFD8E036
:10007000DEBFCDBF11E0A0E0B1E0EAE2F1E002C0F6
:1000800005900D92A430B107D9F70E9478000C9426
:1000900093000C94000080E18093C4001092C5008E
:1000A00082E08093C00088E18093C10086E0809365
:1000B000C20008959091C00095FFFCCF8093C600C8
:1000C00008958091C00087FFFCCF8091C6000895FD
:1000D0000F931F93CF93C62F8C01F80181918F014D
:1000E0000E945A00C150C9F7CF911F910F910895F6
:1000F0000E944B000E9461009FEB980F9A3110F410
:10010000805E0EC09FE9980F9A3110F4805208C0AB
:100110008F3731F463E080E091E00E946800EACF1D
:0A0120000E945A00E7CFF894FFCFC9
:04012A0008200800A1
:00000001FF
