:100000000C9434000C9449000C9449000C94490061
:100010000C9449000C9449000C9449000C9449003C
:100020000C9449000C9449000C9449000C9449002C
:100030000C9449000C9449000C9449000C9449001C
:100040000C9449000C9449000C9449000C9449000C
:100050000C9449000C9449000C9449000C944900FC
:100060000C9449000C94490011241FBECFEFD8E036
:10007000DEBFCDBF11E0A0E0B1E0EEE3F1E002C0F1
:1000800005900D92AE30B107D9F70E9479000C941B
:100090009D000C94000087E68093C4001092C50078
:1000A00086E08093C20088E18093C100089590911A
:1000B000C00095FFFCCF8093C60008958091C000DA
:1000C00087FFFCCF8091C60008950F931F93CF93B5
:1000D000DF93EC018C01060F111DC017D10721F031
:1000E00089910E945700F9CFDF91CF911F910F9115
:1000F0000895CF93DF93CDB7DEB72E970FB6F89460
:10010000DEBF0FBECDBF8EE0E0E0F1E0DE01119674
:1001100001900D928A95E1F70E944B006DE0CE01AF
:1001200001960E9465002FEF89E698E121508040FA
:0E0130009040E1F700C00000F1CFF894FFCF3F
:0E013E0048656C6C6F20576F726C64210A006C
:00000001FF
